:100000000C9434000C943E000C943E000C943E0082
:100010000C943E000C943E000C943E000C943E0068
:100020000C943E000C943E000C943E000C943E0058
:100030000C943E000C943E000C943E000C943E0048
:100040000C943E000C943E000C943E000C943E0038
:100050000C943E000C943E000C943E000C943E0028
:100060000C943E000C943E0011241FBECFEFD8E04C
:10007000DEBFCDBF0E944D000C9481000C940000A7
:10008000FC0120813181FB0140815181FC015183C0
:100090004083FB01318320830895CF93DF9300D009
:1000A00000D0CDB7DEB78AB18C638AB984B18C63D6
:1000B00084B91A82198284E090E09C838B8340E0AB
:1000C00081E090E030E020E04BB9FC01EE0FFF1F33
:1000D00041E050E04C0F5D1FE40FF51F408145B932
:1000E0005FE36DE043E0515060404040E1F700C005
:1000F00000004081632F522F382F292F862F952FF4
:06010000E3CFF894FFCFED
:00000001FF
